08337652337901081220FTDN0305110           +0000000000000+0000000092000+0000018229300B007                                                                        
08337652337901081220FTDN0309868           +0000000000000+0000000055000+0000018284300B700                                                                        
08337652337901081220FTDN0312057           +0000000000000+0000000060000+0000018344300B700                                                                        
08337652337901081220FTDN0311564           +0000000000000+0000000030000+0000018374300B700                                                                        
08337652337901081220FTDN0303103           +0000000000000+0000000060000+0000018434300B807                                                                        
08337652337901081220FTDN0309121           +0000000000000+0000000030000+0000018464300B013                                                                        
08337652337901081220FTDN0300149           +0000000000000+0000000030000+0000018494300B700                                                                        
08337652337901081220FTDN0300706           +0000000000000+0000000060000+0000018554300B053                                                                        
08337652337901081220FTDN0303715           +0000000000000+0000000060000+0000018614300B700                                                                        
08337652337901081220FTDN0300659           +0000000000000+0000000030000+0000018644300B013                                                                        
08337652337901081220FTDN0310787           +0000000000000+0000000040000+0000018684300B808                                                                        
08337652337901081220FTDN0311393           +0000000000000+0000000092000+0000018776300B812                                                                        
08337652337901081220FTDN0301389           +0000000000000+0000000100000+0000018876300B012                                                                        
08337652337901081221FTDN0305222           +0000000000000+0000000060000+0000018936300B822                                                                        
08337652337901081221FTDN0302858           +0000000000000+0000000100000+0000019036300B017                                                                        
08337652337901081221INT         $0( µ| )  +0000000000000+0000000017800+00000190541000833                                                                        
08337652337901081221FTDN0303191           +0000000000000+0000000060000+0000019114100B008                                                                        
08337652337901081221FTDN0305878           +0000000000000+0000000100000+0000019214100B700                                                                        
08337652337901081221FTDN0312283           +0000000000000+0000000065000+0000019279100B812                                                                        
08337652337901081221FTDN0306043           +0000000000000+0000000100000+0000019379100B013                                                                        
08337652337901081221FTDN0301200           +0000000000000+0000000040000+0000019419100B700                                                                        
08337652337901081221FTDN0310084           +0000000000000+0000000100000+0000019519100B812                                                                        
08337652337901081221FTDN0302993           +0000000000000+0000000100000+0000019619100B013                                                                        
08337652337901081221FTDN0301731           +0000000000000+0000000030000+0000019649100B808                                                                        
08337652337901081221FTDN0301630           +0000000000000+0000000030000+0000019679100B700                                                                        
08337652337901081221FTDN0309143           +0000000000000+0000000040000+0000019719100B822                                                                        
08337652337901081221FTDN0311087           +0000000000000+0000000100000+0000019819100B700                                                                        
08337652337901081221FTDN0300626           +0000000000000+0000000080000+0000019899100B700                                                                        
08337652337901081221FTDN0300648           +0000000000000+0000000060000+0000019959100B816                                                                        
08337652337901081221FTDN0313253           +0000000000000+0000000100000+0000020059100B009                                                                        
08337652337901081221FTDN0306837           +0000000000000+0000000100000+0000020159100B700                                                                        
08337652337901081221FTDN0310721           +0000000000000+0000000100000+0000020259100B700                                                                        
08337652337901081222FTDN0304387           +0000000000000+0000000092000+0000020351100B822                                                                        
08337652337901081222FTDN0313184           +0000000000000+0000000040000+0000020391100B700                                                                        
08337652337901081222FTDN0306779           +0000000000000+0000000070000+0000020461100B806                                                                        
08337652337901081222FTDN0310415           +0000000000000+0000000092000+0000020553100B700                                                                        
08337652337901081222FTDN0312771           +0000000000000+0000000100000+0000020653100B812                                                                        
08337652337901081222FTDN0308898           +0000000000000+0000000080000+0000020733100B700                                                                        
08337652337901081222FTDN0304354           +0000000000000+0000000070000+0000020803100B005                                                                        
08337652337901081222XMLD0312705           +0000000000000+0000000092000+0000020895100B006                                                                        
08337652337901081222FTDN0301797           +0000000000000+0000000030000+0000020925100B004                                                                        
08337652337901081222FTDN0306280           +0000000000000+0000000100000+0000021025100B081                                                                        
08337652337901081222FTDN0313399           +0000000000000+0000000060000+0000021085100B700                                                                        
08337652337901081222FTDN0311542           +0000000000000+0000000100000+0000021185100B812                                                                        
08337652337901081222FTDN0307920           +0000000000000+0000000050000+0000021235100B004                                                                        
08337652337901081222ATDN0307851           +0000000000000+0000000100000+00000213351001519                                                                        
08337652337901081222FTDN0309369           +0000000000000+0000000050000+0000021385100B700                                                                        
